:100000000C9446000C945D000C945D000C945D0013
:100010000C945D000C945D000C945D000C945D00EC
:100020000C945D000C945D000C945D000C945D00DC
:100030000C945D000C945D000C945D000C945D00CC
:100040000C945D000C945D000C945D000C945D00BC
:100050000C945D000C945D000C945D000C945D00AC
:100060000C945D000C945D000C945D000C945D009C
:100070000C945D000C945D000C945D000C945D008C
:100080000C945D000C945D000C945D0011241FBE67
:10009000CFEFD0E4DEBFCDBF11E0A0E0B1E0E6EEEF
:1000A000F2E000E00BBF02C007900D92AE30B10746
:1000B000D9F70E9488000C9471010C940000CF9332
:1000C000DF9300D00F92CDB7DEB789837B836A833D
:1000D00089818A3031F48A819B81BC018DE00E9444
:1000E0005F0080EC90E0FC018081882F90E08072BE
:1000F0009927892BB1F386EC90E02981FC012083BC
:1001000080E090E00F900F900F90DF91CF910895D5
:10011000CF93DF9300D000D0CDB7DEB781E290E07F
:10012000FC01108287E290E02FEFFC01208388E23F
:1001300090E0FC0110821C821B821A82198288E2E4
:1001400090E0FC0110821A82198280E290E0FC01AA
:10015000908181E0992309F080E0882F90E09C83D2
:100160008B838B819C81892B29F480E490E09A8396
:100170008983B1C031E08B819C81019709F030E027
:1001800021E08B819C81029709F020E0832F822B54
:10019000882339F089819A81992780669A83898397
:1001A0009AC031E08B819C81039709F030E021E017
:1001B0008B819C81049709F020E0832F822B882378
:1001C00039F089819A81992780679A83898383C0CE
:1001D00031E08B819C81069709F030E021E08B8132
:1001E0009C81059709F020E0832F822B882339F02A
:1001F00089819A81992788639A8389836CC031E0C9
:100200008B819C81079709F030E021E08B819C81F4
:10021000089709F020E0832F822B282F30E041E05F
:100220008B819C81099709F040E0842F90E0822B1C
:10023000932B892B41F089819A81827C99278C6349
:100240009A83898348C031E08B819C810A9709F0A9
:1002500030E021E08B819C810B9709F020E0832F17
:10026000822B282F30E041E08B819C810C9709F094
:1002700040E0842F90E0822B932B892B39F08981E9
:100280009A8199278E639A83898325C031E08B8177
:100290009C810D9709F030E021E08B819C810E97C5
:1002A00009F020E0832F822B282F30E041E08B8162
:1002B0009C810F9709F040E0842F90E0822B932BD4
:1002C000892B39F089819A8199278F639A83898351
:1002D00002C01A82198288E290E02981FC01208301
:0602E0002ECFF894FFCFC1
:0E02E60000000002000000005F0000000000A9
:00000001FF
